{
  "contractName": "SplitPayment",
  "abi": [
    {
      "inputs": [
        {
          "internalType": "address",
          "name": "_owner",
          "type": "address"
        }
      ],
      "stateMutability": "nonpayable",
      "type": "constructor"
    },
    {
      "inputs": [],
      "name": "owner",
      "outputs": [
        {
          "internalType": "address",
          "name": "",
          "type": "address"
        }
      ],
      "stateMutability": "view",
      "type": "function"
    },
    {
      "inputs": [
        {
          "internalType": "address payable[]",
          "name": "to",
          "type": "address[]"
        },
        {
          "internalType": "uint256[]",
          "name": "amount",
          "type": "uint256[]"
        }
      ],
      "name": "send",
      "outputs": [],
      "stateMutability": "payable",
      "type": "function"
    }
  ],
  "bytecode": "0x608060405234801561001057600080fd5b506040516108773803806108778339818101604052810190610032919061008d565b806000806101000a81548173ffffffffffffffffffffffffffffffffffffffff021916908373ffffffffffffffffffffffffffffffffffffffff160217905550506100ff565b600081519050610087816100e8565b92915050565b60006020828403121561009f57600080fd5b60006100ad84828501610078565b91505092915050565b60006100c1826100c8565b9050919050565b600073ffffffffffffffffffffffffffffffffffffffff82169050919050565b6100f1816100b6565b81146100fc57600080fd5b50565b6107698061010e6000396000f3fe6080604052600436106100295760003560e01c80638da5cb5b1461002e578063a645ff5f14610059575b600080fd5b34801561003a57600080fd5b50610043610075565b604051610050919061046d565b60405180910390f35b610073600480360381019061006e91906103ac565b610099565b005b60008054906101000a900473ffffffffffffffffffffffffffffffffffffffff1681565b60008054906101000a900473ffffffffffffffffffffffffffffffffffffffff1673ffffffffffffffffffffffffffffffffffffffff163373ffffffffffffffffffffffffffffffffffffffff1614610127576040517f08c379a000000000000000000000000000000000000000000000000000000000815260040161011e906104a8565b60405180910390fd5b805182511461016b576040517f08c379a000000000000000000000000000000000000000000000000000000000815260040161016290610488565b60405180910390fd5b60005b8251811015610251578281815181106101b0577f4e487b7100000000000000000000000000000000000000000000000000000000600052603260045260246000fd5b602002602001015173ffffffffffffffffffffffffffffffffffffffff166108fc83838151811061020a577f4e487b7100000000000000000000000000000000000000000000000000000000600052603260045260246000fd5b60200260200101519081150290604051600060405180830381858888f1935050505015801561023d573d6000803e3d6000fd5b508080610249906105d5565b91505061016e565b505050565b6000610269610264846104ed565b6104c8565b9050808382526020820190508285602086028201111561028857600080fd5b60005b858110156102b8578161029e888261032e565b84526020840193506020830192505060018101905061028b565b5050509392505050565b60006102d56102d084610519565b6104c8565b905080838252602082019050828560208602820111156102f457600080fd5b60005b85811015610324578161030a8882610397565b8452602084019350602083019250506001810190506102f7565b5050509392505050565b60008135905061033d81610705565b92915050565b600082601f83011261035457600080fd5b8135610364848260208601610256565b91505092915050565b600082601f83011261037e57600080fd5b813561038e8482602086016102c2565b91505092915050565b6000813590506103a68161071c565b92915050565b600080604083850312156103bf57600080fd5b600083013567ffffffffffffffff8111156103d957600080fd5b6103e585828601610343565b925050602083013567ffffffffffffffff81111561040257600080fd5b61040e8582860161036d565b9150509250929050565b61042181610556565b82525050565b6000610434601b83610545565b915061043f8261068d565b602082019050919050565b6000610457602783610545565b9150610462826106b6565b604082019050919050565b60006020820190506104826000830184610418565b92915050565b600060208201905081810360008301526104a181610427565b9050919050565b600060208201905081810360008301526104c18161044a565b9050919050565b60006104d26104e3565b90506104de82826105a4565b919050565b6000604051905090565b600067ffffffffffffffff8211156105085761050761064d565b5b602082029050602081019050919050565b600067ffffffffffffffff8211156105345761053361064d565b5b602082029050602081019050919050565b600082825260208201905092915050565b60006105618261057a565b9050919050565b60006105738261057a565b9050919050565b600073ffffffffffffffffffffffffffffffffffffffff82169050919050565b6000819050919050565b6105ad8261067c565b810181811067ffffffffffffffff821117156105cc576105cb61064d565b5b80604052505050565b60006105e08261059a565b91507fffffffffffffffffffffffffffffffffffffffffffffffffffffffffffffffff8214156106135761061261061e565b5b600182019050919050565b7f4e487b7100000000000000000000000000000000000000000000000000000000600052601160045260246000fd5b7f4e487b7100000000000000000000000000000000000000000000000000000000600052604160045260246000fd5b6000601f19601f8301169050919050565b7f746f20616e6420616d6f756e74206d75737420626520657175616c0000000000600082015250565b7f6f6e6c79206f776e65722063616e20706572666f726d2074686973207472616e60008201527f73616374696f6e00000000000000000000000000000000000000000000000000602082015250565b61070e81610568565b811461071957600080fd5b50565b6107258161059a565b811461073057600080fd5b5056fea26469706673582212203cbc21cbf3934d2a4c23f46aa972eefaec99f9a15e2c8be33ae1ffe03b81f94364736f6c63430008040033",
  "immutableReferences": {},
  "source": "// SPDX-License-Identifier: MIT\npragma solidity ^0.8.4;\n\ncontract SplitPayment {\n    address public owner;\n\n    constructor(address _owner) {\n        owner = _owner;\n    }\n\n    function send(address payable[] memory to, uint256[] memory amount)\n        public\n        payable\n        onlyOwner\n    {\n        require(to.length == amount.length, \"to and amount must be equal\");\n        for (uint256 i = 0; i < to.length; i++) {\n            to[i].transfer(amount[i]);\n        }\n    }\n\n    modifier onlyOwner() {\n        require(msg.sender == owner, \"only owner can perform this transaction\");\n        _;\n    }\n}\n",
  "sourcePath": "/home/devcraft/Desktop/smart-contracts/7.SplitPayment/contracts/SplitPayment.sol",
  "compiler": {
    "name": "solc",
    "version": "0.8.4+commit.c7e474f2.Emscripten.clang"
  },
  "schemaVersion": "3.4.3",
  "updatedAt": "2021-09-30T14:12:06.428Z",
  "devdoc": {
    "kind": "dev",
    "methods": {},
    "version": 1
  },
  "userdoc": {
    "kind": "user",
    "methods": {},
    "version": 1
  }
}