{
  "contractName": "Crud",
  "abi": [
    {
      "inputs": [],
      "name": "newId",
      "outputs": [
        {
          "internalType": "uint256",
          "name": "",
          "type": "uint256"
        }
      ],
      "stateMutability": "view",
      "type": "function"
    },
    {
      "inputs": [
        {
          "internalType": "uint256",
          "name": "",
          "type": "uint256"
        }
      ],
      "name": "users",
      "outputs": [
        {
          "internalType": "uint256",
          "name": "id",
          "type": "uint256"
        },
        {
          "internalType": "string",
          "name": "name",
          "type": "string"
        }
      ],
      "stateMutability": "view",
      "type": "function"
    },
    {
      "inputs": [
        {
          "internalType": "string",
          "name": "name",
          "type": "string"
        }
      ],
      "name": "create",
      "outputs": [],
      "stateMutability": "nonpayable",
      "type": "function"
    },
    {
      "inputs": [
        {
          "internalType": "uint256",
          "name": "id",
          "type": "uint256"
        }
      ],
      "name": "read",
      "outputs": [
        {
          "internalType": "uint256",
          "name": "",
          "type": "uint256"
        },
        {
          "internalType": "string",
          "name": "",
          "type": "string"
        }
      ],
      "stateMutability": "view",
      "type": "function"
    },
    {
      "inputs": [
        {
          "internalType": "uint256",
          "name": "id",
          "type": "uint256"
        },
        {
          "internalType": "string",
          "name": "name",
          "type": "string"
        }
      ],
      "name": "update",
      "outputs": [
        {
          "internalType": "string",
          "name": "",
          "type": "string"
        }
      ],
      "stateMutability": "nonpayable",
      "type": "function"
    },
    {
      "inputs": [
        {
          "internalType": "uint256",
          "name": "id",
          "type": "uint256"
        }
      ],
      "name": "destroy",
      "outputs": [],
      "stateMutability": "nonpayable",
      "type": "function"
    }
  ],
  "bytecode": "0x608060405234801561001057600080fd5b50610aa6806100206000396000f3fe608060405234801561001057600080fd5b50600436106100625760003560e01c8063365b98b2146100675780635c956fb9146100985780639d118770146100b6578063b6a46b3b146100d2578063ed2e5a97146100ee578063f745630f1461011f575b600080fd5b610081600480360381019061007c91906106d0565b61014f565b60405161008f9291906107de565b60405180910390f35b6100a061020b565b6040516100ad91906107c3565b60405180910390f35b6100d060048036038101906100cb91906106d0565b610211565b005b6100ec60048036038101906100e79190610687565b610251565b005b610108600480360381019061010391906106d0565b6102bf565b6040516101169291906107de565b60405180910390f35b610139600480360381019061013491906106fd565b6103fb565b60405161014691906107a1565b60405180910390f35b6000818154811061015f57600080fd5b9060005260206000209060020201600091509050806000015490806001018054610188906108cc565b80601f01602080910402602001604051908101604052809291908181526020018280546101b4906108cc565b80156102015780601f106101d657610100808354040283529160200191610201565b820191906000526020600020905b8154815290600101906020018083116101e457829003601f168201915b5050505050905082565b60015481565b60008181548110610225576102246109d6565b5b906000526020600020906002020160008082016000905560018201600061024c919061051f565b505050565b6000604051806040016040528060015481526020018381525090806001815401808255809150506001900390600052602060002090600202016000909190919091506000820151816000015560208201518160010190805190602001906102b992919061055f565b50505050565b6000606060005b6000805490508110156103f45783600082815481106102e8576102e76109d6565b5b90600052602060002090600202016000015414156103e15760008181548110610314576103136109d6565b5b9060005260206000209060020201600001546000828154811061033a576103396109d6565b5b9060005260206000209060020201600101808054610357906108cc565b80601f0160208091040260200160405190810160405280929190818152602001828054610383906108cc565b80156103d05780601f106103a5576101008083540402835291602001916103d0565b820191906000526020600020905b8154815290600101906020018083116103b357829003601f168201915b5050505050905092509250506103f6565b80806103ec9061092f565b9150506102c6565b505b915091565b606060005b600080549050811015610517578360008281548110610422576104216109d6565b5b906000526020600020906002020160000154141561050457826000828154811061044f5761044e6109d6565b5b9060005260206000209060020201600101908051906020019061047392919061055f565b805461047e906108cc565b80601f01602080910402602001604051908101604052809291908181526020018280546104aa906108cc565b80156104f75780601f106104cc576101008083540402835291602001916104f7565b820191906000526020600020905b8154815290600101906020018083116104da57829003601f168201915b5050505050915050610519565b808061050f9061092f565b915050610400565b505b92915050565b50805461052b906108cc565b6000825580601f1061053d575061055c565b601f01602090049060005260206000209081019061055b91906105e5565b5b50565b82805461056b906108cc565b90600052602060002090601f01602090048101928261058d57600085556105d4565b82601f106105a657805160ff19168380011785556105d4565b828001600101855582156105d4579182015b828111156105d35782518255916020019190600101906105b8565b5b5090506105e191906105e5565b5090565b5b808211156105fe5760008160009055506001016105e6565b5090565b600061061561061084610833565b61080e565b90508281526020810184848401111561063157610630610a39565b5b61063c84828561088a565b509392505050565b600082601f83011261065957610658610a34565b5b8135610669848260208601610602565b91505092915050565b60008135905061068181610a59565b92915050565b60006020828403121561069d5761069c610a43565b5b600082013567ffffffffffffffff8111156106bb576106ba610a3e565b5b6106c784828501610644565b91505092915050565b6000602082840312156106e6576106e5610a43565b5b60006106f484828501610672565b91505092915050565b6000806040838503121561071457610713610a43565b5b600061072285828601610672565b925050602083013567ffffffffffffffff81111561074357610742610a3e565b5b61074f85828601610644565b9150509250929050565b600061076482610864565b61076e818561086f565b935061077e818560208601610899565b61078781610a48565b840191505092915050565b61079b81610880565b82525050565b600060208201905081810360008301526107bb8184610759565b905092915050565b60006020820190506107d86000830184610792565b92915050565b60006040820190506107f36000830185610792565b81810360208301526108058184610759565b90509392505050565b6000610818610829565b905061082482826108fe565b919050565b6000604051905090565b600067ffffffffffffffff82111561084e5761084d610a05565b5b61085782610a48565b9050602081019050919050565b600081519050919050565b600082825260208201905092915050565b6000819050919050565b82818337600083830152505050565b60005b838110156108b757808201518184015260208101905061089c565b838111156108c6576000848401525b50505050565b600060028204905060018216806108e457607f821691505b602082108114156108f8576108f76109a7565b5b50919050565b61090782610a48565b810181811067ffffffffffffffff8211171561092657610925610a05565b5b80604052505050565b600061093a82610880565b91507fffffffffffffffffffffffffffffffffffffffffffffffffffffffffffffffff82141561096d5761096c610978565b5b600182019050919050565b7f4e487b7100000000000000000000000000000000000000000000000000000000600052601160045260246000fd5b7f4e487b7100000000000000000000000000000000000000000000000000000000600052602260045260246000fd5b7f4e487b7100000000000000000000000000000000000000000000000000000000600052603260045260246000fd5b7f4e487b7100000000000000000000000000000000000000000000000000000000600052604160045260246000fd5b600080fd5b600080fd5b600080fd5b600080fd5b6000601f19601f8301169050919050565b610a6281610880565b8114610a6d57600080fd5b5056fea26469706673582212203eadb6bd0b31315a0fbe994bb124b05bdd746ff518a404f2147d859af52f5fed64736f6c63430008070033",
  "immutableReferences": {},
  "source": "// SPDX-License-Identifier: MIT\npragma solidity ^0.8.7;\n\ncontract Crud {\n\tstruct User {\n\t\tuint id;\n\t\tstring name;\n\t}\n\n\tUser[] public users;\n\tuint public newId;\n\n\tfunction create(string memory name) public {\n\t\tusers.push(User(newId, name));\n\t}\n\n\tfunction read(uint id) public view returns (uint, string memory) {\n\t\tfor (uint i = 0; i < users.length; i++) {\n\t\t\tif (users[i].id == id) {\n\t\t\t\treturn (users[i].id, users[i].name);\n\t\t\t}\n\t\t}\n\t}\n\n\tfunction update(uint id, string memory name)\n\t\tpublic\n\t\treturns (string memory)\n\t{\n\t\tfor (uint i = 0; i < users.length; i++) {\n\t\t\tif (users[i].id == id) {\n\t\t\t\treturn (users[i].name = name);\n\t\t\t}\n\t\t}\n\t}\n\n\tfunction destroy(uint id) public {\n\t\tdelete users[id];\n\t}\n}\n",
  "sourcePath": "/home/devcraft/Desktop/smart-contracts/5.Crud/contracts/Crud.sol",
  "compiler": {
    "name": "solc",
    "version": "0.8.7+commit.e28d00a7.Emscripten.clang"
  },
  "schemaVersion": "3.4.3",
  "updatedAt": "2021-09-29T14:22:45.279Z",
  "devdoc": {
    "kind": "dev",
    "methods": {},
    "version": 1
  },
  "userdoc": {
    "kind": "user",
    "methods": {},
    "version": 1
  }
}