{
  "contractName": "Wallet",
  "abi": [
    {
      "inputs": [
        {
          "internalType": "address",
          "name": "_owner",
          "type": "address"
        }
      ],
      "stateMutability": "nonpayable",
      "type": "constructor"
    },
    {
      "inputs": [],
      "name": "owner",
      "outputs": [
        {
          "internalType": "address",
          "name": "",
          "type": "address"
        }
      ],
      "stateMutability": "view",
      "type": "function"
    },
    {
      "inputs": [],
      "name": "deposit",
      "outputs": [],
      "stateMutability": "payable",
      "type": "function"
    },
    {
      "inputs": [
        {
          "internalType": "address payable",
          "name": "to",
          "type": "address"
        },
        {
          "internalType": "uint256",
          "name": "amount",
          "type": "uint256"
        }
      ],
      "name": "send",
      "outputs": [],
      "stateMutability": "nonpayable",
      "type": "function"
    },
    {
      "inputs": [],
      "name": "balanceOf",
      "outputs": [
        {
          "internalType": "uint256",
          "name": "",
          "type": "uint256"
        }
      ],
      "stateMutability": "view",
      "type": "function"
    }
  ],
  "bytecode": "0x608060405234801561001057600080fd5b506040516104d13803806104d18339818101604052810190610032919061008d565b806000806101000a81548173ffffffffffffffffffffffffffffffffffffffff021916908373ffffffffffffffffffffffffffffffffffffffff160217905550506100ff565b600081519050610087816100e8565b92915050565b60006020828403121561009f57600080fd5b60006100ad84828501610078565b91505092915050565b60006100c1826100c8565b9050919050565b600073ffffffffffffffffffffffffffffffffffffffff82169050919050565b6100f1816100b6565b81146100fc57600080fd5b50565b6103c38061010e6000396000f3fe60806040526004361061003f5760003560e01c8063722713f7146100445780638da5cb5b1461006f578063d0679d341461009a578063d0e30db0146100c3575b600080fd5b34801561005057600080fd5b506100596100cd565b60405161006691906102bc565b60405180910390f35b34801561007b57600080fd5b506100846100d5565b6040516100919190610281565b60405180910390f35b3480156100a657600080fd5b506100c160048036038101906100bc9190610204565b6100f9565b005b6100cb6101d8565b005b600047905090565b60008054906101000a900473ffffffffffffffffffffffffffffffffffffffff1681565b60008054906101000a900473ffffffffffffffffffffffffffffffffffffffff1673ffffffffffffffffffffffffffffffffffffffff163373ffffffffffffffffffffffffffffffffffffffff161415610199578173ffffffffffffffffffffffffffffffffffffffff166108fc829081150290604051600060405180830381858888f19350505050158015610193573d6000803e3d6000fd5b506101d4565b6040517f08c379a00000000000000000000000000000000000000000000000000000000081526004016101cb9061029c565b60405180910390fd5b5050565b565b6000813590506101e98161035f565b92915050565b6000813590506101fe81610376565b92915050565b6000806040838503121561021757600080fd5b6000610225858286016101da565b9250506020610236858286016101ef565b9150509250929050565b610249816102e8565b82525050565b600061025c6012836102d7565b915061026782610336565b602082019050919050565b61027b8161032c565b82525050565b60006020820190506102966000830184610240565b92915050565b600060208201905081810360008301526102b58161024f565b9050919050565b60006020820190506102d16000830184610272565b92915050565b600082825260208201905092915050565b60006102f38261030c565b9050919050565b60006103058261030c565b9050919050565b600073ffffffffffffffffffffffffffffffffffffffff82169050919050565b6000819050919050565b7f73656e646572206e6f7420616c6c6f7765640000000000000000000000000000600082015250565b610368816102fa565b811461037357600080fd5b50565b61037f8161032c565b811461038a57600080fd5b5056fea26469706673582212208d0bca2870aeaeb4e6f1ba04dfaf4bea294aa618e9d619528a7ccb1cae747ccf64736f6c63430008040033",
  "immutableReferences": {},
  "source": "// SPDX-License-Identifier:MIT\npragma solidity ^0.8.4;\n\ncontract Wallet {\n    address public owner;\n\n    constructor(address _owner) {\n        owner = _owner;\n    }\n\n    function deposit() public payable {}\n\n    function send(address payable to, uint256 amount) public {\n        if (msg.sender == owner) {\n            return to.transfer(amount);\n        }\n        revert(\"sender not allowed\");\n    }\n\n    function balanceOf() public view returns (uint256) {\n        return address(this).balance;\n    }\n}\n",
  "sourcePath": "/home/devcraft/Desktop/smart-contracts/6.Wallet/contracts/Wallet.sol",
  "compiler": {
    "name": "solc",
    "version": "0.8.4+commit.c7e474f2.Emscripten.clang"
  },
  "schemaVersion": "3.4.3",
  "updatedAt": "2021-09-30T10:24:18.114Z",
  "devdoc": {
    "kind": "dev",
    "methods": {},
    "version": 1
  },
  "userdoc": {
    "kind": "user",
    "methods": {},
    "version": 1
  }
}