{
  "contractName": "Schedules",
  "abi": [
    {
      "constant": false,
      "inputs": [],
      "name": "setToWork",
      "outputs": [],
      "payable": false,
      "stateMutability": "nonpayable",
      "type": "function"
    },
    {
      "constant": false,
      "inputs": [],
      "name": "setToHome",
      "outputs": [],
      "payable": false,
      "stateMutability": "nonpayable",
      "type": "function"
    },
    {
      "constant": false,
      "inputs": [],
      "name": "setToField",
      "outputs": [],
      "payable": false,
      "stateMutability": "nonpayable",
      "type": "function"
    },
    {
      "constant": true,
      "inputs": [],
      "name": "checkState",
      "outputs": [
        {
          "name": "",
          "type": "string"
        }
      ],
      "payable": false,
      "stateMutability": "view",
      "type": "function"
    }
  ],
  "bytecode": "0x608060405234801561001057600080fd5b5061034c806100206000396000f3fe60806040526004361061005c576000357c0100000000000000000000000000000000000000000000000000000000900480635c06753c14610061578063771978e51461007857806396dfcbea1461008f578063cfa4142a1461011f575b600080fd5b34801561006d57600080fd5b50610076610136565b005b34801561008457600080fd5b5061008d61015b565b005b34801561009b57600080fd5b506100a4610180565b6040518080602001828103825283818151815260200191508051906020019080838360005b838110156100e45780820151818401526020810190506100c9565b50505050905090810190601f1680156101115780820380516001836020036101000a031916815260200191505b509250505060405180910390f35b34801561012b57600080fd5b506101346102fb565b005b60026000806101000a81548160ff0219169083600281111561015457fe5b0217905550565b60008060006101000a81548160ff0219169083600281111561017957fe5b0217905550565b60606000600281111561018f57fe5b6000809054906101000a900460ff1660028111156101a957fe5b14156101ec576040805190810160405280600781526020017f617420776f726b0000000000000000000000000000000000000000000000000081525090506102f8565b600160028111156101f957fe5b6000809054906101000a900460ff16600281111561021357fe5b1415610256576040805190810160405280600781526020017f617420686f6d650000000000000000000000000000000000000000000000000081525090506102f8565b60028081111561026257fe5b6000809054906101000a900460ff16600281111561027c57fe5b14156102bf576040805190810160405280600881526020017f6174206669656c6400000000000000000000000000000000000000000000000081525090506102f8565b6040805190810160405280600c81526020017f5461736b206e6f7420736574000000000000000000000000000000000000000081525090505b90565b60016000806101000a81548160ff0219169083600281111561031957fe5b021790555056fea165627a7a72305820b0fb5c843e82ae6a948222ff28e7c8c388995292568f1a7eb7fa484cc5434c250029",
  "source": "// SPDX-License-Identifier: MIT\npragma solidity >=0.4.22 <0.9.0;\n\ncontract Schedules {\n    enum State {\n        work,\n        home,\n        field\n    }\n\n    State internal state;\n\n    function setToWork() public {\n        state = State.work;\n    }\n\n    function setToHome() public {\n        state = State.home;\n    }\n\n    function setToField() public {\n        state = State.field;\n    }\n\n    function checkState() public view returns (string memory) {\n        if (state == State.work) {\n            return \"at work\";\n        } else if (state == State.home) {\n            return \"at home\";\n        } else if (state == State.field) {\n            return \"at field\";\n        } else return \"Task not set\";\n    }\n}\n",
  "sourcePath": "/Users/joe/Desktop/sample-contracts/15.Schedule/contracts/Schedule.sol",
  "compiler": {
    "name": "solc",
    "version": "0.5.1+commit.c8a2cb62.Emscripten.clang"
  },
  "schemaVersion": "3.3.3",
  "updatedAt": "2021-10-18T17:33:09.769Z",
  "devdoc": {
    "methods": {}
  },
  "userdoc": {
    "methods": {}
  }
}