{
  "contractName": "Test",
  "abi": [
    {
      "constant": false,
      "inputs": [
        {
          "name": "id",
          "type": "uint256"
        },
        {
          "name": "name",
          "type": "string"
        },
        {
          "name": "interest",
          "type": "string"
        }
      ],
      "name": "createUser",
      "outputs": [],
      "payable": false,
      "stateMutability": "nonpayable",
      "type": "function"
    },
    {
      "constant": true,
      "inputs": [
        {
          "name": "id",
          "type": "uint256"
        }
      ],
      "name": "UserId",
      "outputs": [
        {
          "name": "",
          "type": "uint256"
        }
      ],
      "payable": false,
      "stateMutability": "view",
      "type": "function"
    },
    {
      "constant": true,
      "inputs": [
        {
          "name": "id",
          "type": "uint256"
        }
      ],
      "name": "UserName",
      "outputs": [
        {
          "name": "",
          "type": "string"
        }
      ],
      "payable": false,
      "stateMutability": "view",
      "type": "function"
    },
    {
      "constant": true,
      "inputs": [
        {
          "name": "id",
          "type": "uint256"
        }
      ],
      "name": "UserInterest",
      "outputs": [
        {
          "name": "",
          "type": "string"
        }
      ],
      "payable": false,
      "stateMutability": "view",
      "type": "function"
    }
  ],
  "bytecode": "0x608060405234801561001057600080fd5b50610852806100206000396000f3fe60806040526004361061005c576000357c0100000000000000000000000000000000000000000000000000000000900480630934c49c14610061578063179254601461011557806354147b24146101c9578063950be19f14610218575b600080fd5b34801561006d57600080fd5b5061009a6004803603602081101561008457600080fd5b8101908080359060200190929190505050610381565b6040518080602001828103825283818151815260200191508051906020019080838360005b838110156100da5780820151818401526020810190506100bf565b50505050905090810190601f1680156101075780820380516001836020036101000a031916815260200191505b509250505060405180910390f35b34801561012157600080fd5b5061014e6004803603602081101561013857600080fd5b81019080803590602001909291905050506104c3565b6040518080602001828103825283818151815260200191508051906020019080838360005b8381101561018e578082015181840152602081019050610173565b50505050905090810190601f1680156101bb5780820380516001836020036101000a031916815260200191505b509250505060405180910390f35b3480156101d557600080fd5b50610202600480360360208110156101ec57600080fd5b8101908080359060200190929190505050610605565b6040518082815260200191505060405180910390f35b34801561022457600080fd5b5061037f6004803603606081101561023b57600080fd5b81019080803590602001909291908035906020019064010000000081111561026257600080fd5b82018360208201111561027457600080fd5b8035906020019184600183028401116401000000008311171561029657600080fd5b91908080601f016020809104026020016040519081016040528093929190818152602001838380828437600081840152601f19601f820116905080830192505050505050509192919290803590602001906401000000008111156102f957600080fd5b82018360208201111561030b57600080fd5b8035906020019184600183028401116401000000008311171561032d57600080fd5b91908080601f016020809104026020016040519081016040528093929190818152602001838380828437600081840152601f19601f8201169050808301925050505050505091929192905050506106ec565b005b606060008090506000805490508110156104bc57826000828154811015156103a557fe5b906000526020600020906003020160000154141561047e576000818154811015156103cc57fe5b90600052602060002090600302016001018054600181600116156101000203166002900480601f0160208091040260200160405190810160405280929190818152602001828054600181600116156101000203166002900480156104715780601f1061044657610100808354040283529160200191610471565b820191906000526020600020905b81548152906001019060200180831161045457829003601f168201915b50505050509150506104be565b6040805190810160405280601281526020017f757365726e616d65206e6f7420666f756e6400000000000000000000000000008152509150506104be565b505b919050565b606060008090506000805490508110156105fe57826000828154811015156104e757fe5b90600052602060002090600302016000015414156105c05760008181548110151561050e57fe5b90600052602060002090600302016002018054600181600116156101000203166002900480601f0160208091040260200160405190810160405280929190818152602001828054600181600116156101000203166002900480156105b35780601f10610588576101008083540402835291602001916105b3565b820191906000526020600020905b81548152906001019060200180831161059657829003601f168201915b5050505050915050610600565b6040805190810160405280601781526020017f7573657220696e746572657374206e6f7420666f756e64000000000000000000815250915050610600565b505b919050565b600080600090505b600080549050811015610678578260008281548110151561062a57fe5b906000526020600020906003020160000154141561066b5760008181548110151561065157fe5b9060005260206000209060030201600001549150506106e7565b808060010191505061060d565b506040517f08c379a00000000000000000000000000000000000000000000000000000000081526004018080602001828103825260118152602001807f75736572206964206e6f7420666f756e6400000000000000000000000000000081525060200191505060405180910390fd5b919050565b6000606060405190810160405280858152602001848152602001838152509080600181540180825580915050906001820390600052602060002090600302016000909192909190915060008201518160000155602082015181600101908051906020019061075b929190610781565b506040820151816002019080519060200190610778929190610781565b50505050505050565b828054600181600116156101000203166002900490600052602060002090601f016020900481019282601f106107c257805160ff19168380011785556107f0565b828001600101855582156107f0579182015b828111156107ef5782518255916020019190600101906107d4565b5b5090506107fd9190610801565b5090565b61082391905b8082111561081f576000816000905550600101610807565b5090565b9056fea165627a7a72305820cc2500c777bada994e9eac5f5c67192306b41a97178ce9c5451543c4c423fce20029",
  "source": "// SPDX-License-Identifier: MIT\npragma solidity >=0.4.22 <0.9.0;\n\ncontract Test {\n    struct User {\n        uint256 id;\n        string name;\n        string interest;\n    }\n\n    User[] user;\n\n    function createUser(\n        uint256 id,\n        string memory name,\n        string memory interest\n    ) public {\n        user.push(User({id: id, name: name, interest: interest}));\n    }\n\n    function UserId(uint256 id) public view returns (uint256) {\n        for (uint256 i = 0; i < user.length; i++) {\n            if (user[i].id == id) {\n                return (user[i].id);\n            }\n        }\n        revert(\"user id not found\");\n    }\n\n    function UserName(uint256 id) public view returns (string memory) {\n        for (uint256 i = 0; i < user.length; i++) {\n            if (user[i].id == id) {\n                return (user[i].name);\n            }\n            return \"username not found\";\n        }\n    }\n\n    function UserInterest(uint256 id) public view returns (string memory) {\n        for (uint256 i = 0; i < user.length; i++) {\n            if (user[i].id == id) {\n                return (user[i].interest);\n            }\n            return \"user interest not found\";\n        }\n    }\n}\n",
  "sourcePath": "/Users/joe/Desktop/sample-contracts/15.Schedule/contracts/User.sol",
  "compiler": {
    "name": "solc",
    "version": "0.5.1+commit.c8a2cb62.Emscripten.clang"
  },
  "schemaVersion": "3.3.3",
  "updatedAt": "2021-10-18T17:33:09.769Z",
  "devdoc": {
    "methods": {}
  },
  "userdoc": {
    "methods": {}
  }
}