{
  "contractName": "Escrow",
  "abi": [
    {
      "inputs": [
        {
          "internalType": "address",
          "name": "_payer",
          "type": "address"
        },
        {
          "internalType": "address payable",
          "name": "_payee",
          "type": "address"
        },
        {
          "internalType": "uint256",
          "name": "_amount",
          "type": "uint256"
        }
      ],
      "stateMutability": "payable",
      "type": "constructor"
    },
    {
      "inputs": [],
      "name": "amount",
      "outputs": [
        {
          "internalType": "uint256",
          "name": "",
          "type": "uint256"
        }
      ],
      "stateMutability": "view",
      "type": "function"
    },
    {
      "inputs": [],
      "name": "lawyer",
      "outputs": [
        {
          "internalType": "address",
          "name": "",
          "type": "address"
        }
      ],
      "stateMutability": "view",
      "type": "function"
    },
    {
      "inputs": [],
      "name": "payee",
      "outputs": [
        {
          "internalType": "address payable",
          "name": "",
          "type": "address"
        }
      ],
      "stateMutability": "view",
      "type": "function"
    },
    {
      "inputs": [],
      "name": "payer",
      "outputs": [
        {
          "internalType": "address",
          "name": "",
          "type": "address"
        }
      ],
      "stateMutability": "view",
      "type": "function"
    },
    {
      "inputs": [],
      "name": "deposit",
      "outputs": [],
      "stateMutability": "payable",
      "type": "function"
    },
    {
      "inputs": [],
      "name": "release",
      "outputs": [],
      "stateMutability": "nonpayable",
      "type": "function"
    },
    {
      "inputs": [],
      "name": "balanceOf",
      "outputs": [
        {
          "internalType": "uint256",
          "name": "",
          "type": "uint256"
        }
      ],
      "stateMutability": "view",
      "type": "function"
    }
  ],
  "bytecode": "0x608060405260405161093638038061093683398181016040528101906100259190610135565b826000806101000a81548173ffffffffffffffffffffffffffffffffffffffff021916908373ffffffffffffffffffffffffffffffffffffffff16021790555081600160006101000a81548173ffffffffffffffffffffffffffffffffffffffff021916908373ffffffffffffffffffffffffffffffffffffffff16021790555033600260006101000a81548173ffffffffffffffffffffffffffffffffffffffff021916908373ffffffffffffffffffffffffffffffffffffffff16021790555080600381905550505050610217565b600081519050610105816101d2565b92915050565b60008151905061011a816101e9565b92915050565b60008151905061012f81610200565b92915050565b60008060006060848603121561014a57600080fd5b6000610158868287016100f6565b93505060206101698682870161010b565b925050604061017a86828701610120565b9150509250925092565b600061018f826101a8565b9050919050565b60006101a1826101a8565b9050919050565b600073ffffffffffffffffffffffffffffffffffffffff82169050919050565b6000819050919050565b6101db81610184565b81146101e657600080fd5b50565b6101f281610196565b81146101fd57600080fd5b50565b610209816101c8565b811461021457600080fd5b50565b610710806102266000396000f3fe6080604052600436106100705760003560e01c806386d1a69f1161004e57806386d1a69f146100f6578063aa8c217c1461010d578063ae90b21314610138578063d0e30db01461016357610070565b8063123119cd146100755780633bfb6e31146100a0578063722713f7146100cb575b600080fd5b34801561008157600080fd5b5061008a61016d565b60405161009791906104ba565b60405180910390f35b3480156100ac57600080fd5b506100b5610191565b6040516100c291906104ba565b60405180910390f35b3480156100d757600080fd5b506100e06101b7565b6040516100ed9190610570565b60405180910390f35b34801561010257600080fd5b5061010b6101bf565b005b34801561011957600080fd5b50610122610300565b60405161012f9190610570565b60405180910390f35b34801561014457600080fd5b5061014d610306565b60405161015a91906104d5565b60405180910390f35b61016b61032c565b005b60008054906101000a900473ffffffffffffffffffffffffffffffffffffffff1681565b600260009054906101000a900473ffffffffffffffffffffffffffffffffffffffff1681565b600047905090565b6003544714610203576040517f08c379a00000000000000000000000000000000000000000000000000000000081526004016101fa90610510565b60405180910390fd5b600260009054906101000a900473ffffffffffffffffffffffffffffffffffffffff1673ffffffffffffffffffffffffffffffffffffffff163373ffffffffffffffffffffffffffffffffffffffff1614610293576040517f08c379a000000000000000000000000000000000000000000000000000000000815260040161028a906104f0565b60405180910390fd5b600160009054906101000a900473ffffffffffffffffffffffffffffffffffffffff1673ffffffffffffffffffffffffffffffffffffffff166108fc6003549081150290604051600060405180830381858888f193505050501580156102fd573d6000803e3d6000fd5b50565b60035481565b600160009054906101000a900473ffffffffffffffffffffffffffffffffffffffff1681565b60008054906101000a900473ffffffffffffffffffffffffffffffffffffffff1673ffffffffffffffffffffffffffffffffffffffff163373ffffffffffffffffffffffffffffffffffffffff16146103ba576040517f08c379a00000000000000000000000000000000000000000000000000000000081526004016103b190610550565b60405180910390fd5b6003544711156103ff576040517f08c379a00000000000000000000000000000000000000000000000000000000081526004016103f690610530565b60405180910390fd5b565b61040a816105ae565b82525050565b6104198161059c565b82525050565b600061042c601d8361058b565b9150610437826105ea565b602082019050919050565b600061044f602f8361058b565b915061045a82610613565b604082019050919050565b600061047260218361058b565b915061047d82610662565b604082019050919050565b600061049560188361058b565b91506104a0826106b1565b602082019050919050565b6104b4816105e0565b82525050565b60006020820190506104cf6000830184610410565b92915050565b60006020820190506104ea6000830184610401565b92915050565b600060208201905081810360008301526105098161041f565b9050919050565b6000602082019050818103600083015261052981610442565b9050919050565b6000602082019050818103600083015261054981610465565b9050919050565b6000602082019050818103600083015261056981610488565b9050919050565b600060208201905061058560008301846104ab565b92915050565b600082825260208201905092915050565b60006105a7826105c0565b9050919050565b60006105b9826105c0565b9050919050565b600073ffffffffffffffffffffffffffffffffffffffff82169050919050565b6000819050919050565b7f6f6e6c79206c61777965722063616e2072656c656173652066756e6473000000600082015250565b7f63616e6e6f742072656c656173652066756e6473206265666f72652066756c6c60008201527f20616d6f756e742069732073656e740000000000000000000000000000000000602082015250565b7f43616e742073656e64206d6f7265207468616e20657363726f7720616d6f756e60008201527f7400000000000000000000000000000000000000000000000000000000000000602082015250565b7f53656e646572206d75737420626520746865207061796572000000000000000060008201525056fea2646970667358221220528c7aa2fbd54e690f7848cb2d8732ccf76047a95eebc548a222e90e294be6e864736f6c63430008040033",
  "immutableReferences": {},
  "source": "// SPDX-License-Identifier:MIT\npragma solidity ^0.8.4;\n\ncontract Escrow {\n    address public payer;\n    address payable public payee;\n    address public lawyer;\n    uint256 public amount;\n\n    constructor(\n        address _payer,\n        address payable _payee,\n        uint256 _amount\n    ) payable {\n        payer = _payer;\n        payee = _payee;\n        lawyer = msg.sender;\n        amount = _amount;\n    }\n\n    function deposit() public payable {\n        require(msg.sender == payer, \"Sender must be the payer\");\n        require(\n            address(this).balance <= amount,\n            \"Cant send more than escrow amount\"\n        );\n    }\n\n    function release() public {\n        require(\n            address(this).balance == amount,\n            \"cannot release funds before full amount is sent\"\n        );\n        require(msg.sender == lawyer, \"only lawyer can release funds\");\n        payee.transfer(amount);\n    }\n\n    function balanceOf() public view returns (uint256) {\n        return address(this).balance;\n    }\n}\n",
  "sourcePath": "/Users/joe/Desktop/sample-contracts/11.Escrow/contracts/Escrow.sol",
  "compiler": {
    "name": "solc",
    "version": "0.8.4+commit.c7e474f2.Emscripten.clang"
  },
  "schemaVersion": "3.3.3",
  "updatedAt": "2021-10-14T14:41:55.935Z",
  "devdoc": {
    "kind": "dev",
    "methods": {},
    "version": 1
  },
  "userdoc": {
    "kind": "user",
    "methods": {},
    "version": 1
  }
}