{
  "contractName": "AdvancedStorage",
  "abi": [
    {
      "inputs": [
        {
          "internalType": "uint256",
          "name": "",
          "type": "uint256"
        }
      ],
      "name": "ids",
      "outputs": [
        {
          "internalType": "uint256",
          "name": "",
          "type": "uint256"
        }
      ],
      "stateMutability": "view",
      "type": "function"
    },
    {
      "inputs": [
        {
          "internalType": "uint256",
          "name": "_id",
          "type": "uint256"
        }
      ],
      "name": "add",
      "outputs": [],
      "stateMutability": "nonpayable",
      "type": "function"
    },
    {
      "inputs": [
        {
          "internalType": "uint256",
          "name": "position",
          "type": "uint256"
        }
      ],
      "name": "get",
      "outputs": [
        {
          "internalType": "uint256",
          "name": "",
          "type": "uint256"
        }
      ],
      "stateMutability": "view",
      "type": "function"
    },
    {
      "inputs": [],
      "name": "getAll",
      "outputs": [
        {
          "internalType": "uint256[]",
          "name": "",
          "type": "uint256[]"
        }
      ],
      "stateMutability": "view",
      "type": "function"
    },
    {
      "inputs": [],
      "name": "getLength",
      "outputs": [
        {
          "internalType": "uint256",
          "name": "",
          "type": "uint256"
        }
      ],
      "stateMutability": "view",
      "type": "function"
    }
  ],
  "bytecode": "0x608060405234801561001057600080fd5b506103b4806100206000396000f3fe608060405234801561001057600080fd5b50600436106100575760003560e01c80631003e2d21461005c57806353ed5143146100785780639507d39a14610096578063be1c766b146100c6578063fac333ac146100e4575b600080fd5b6100766004803603810190610071919061022a565b610114565b005b610080610140565b60405161008d91906102e7565b60405180910390f35b6100b060048036038101906100ab919061022a565b610198565b6040516100bd9190610309565b60405180910390f35b6100ce6101e5565b6040516100db9190610309565b60405180910390f35b6100fe60048036038101906100f9919061022a565b6101f1565b60405161010b9190610309565b60405180910390f35b600081908060018154018082558091505060019003906000526020600020016000909190919091505550565b6060600080548060200260200160405190810160405280929190818152602001828054801561018e57602002820191906000526020600020905b81548152602001906001019080831161017a575b5050505050905090565b60008082815481106101d3577f4e487b7100000000000000000000000000000000000000000000000000000000600052603260045260246000fd5b90600052602060002001549050919050565b60008080549050905090565b6000818154811061020157600080fd5b906000526020600020016000915090505481565b60008135905061022481610367565b92915050565b60006020828403121561023c57600080fd5b600061024a84828501610215565b91505092915050565b600061025f83836102c9565b60208301905092915050565b600061027682610334565b610280818561034c565b935061028b83610324565b8060005b838110156102bc5781516102a38882610253565b97506102ae8361033f565b92505060018101905061028f565b5085935050505092915050565b6102d28161035d565b82525050565b6102e18161035d565b82525050565b60006020820190508181036000830152610301818461026b565b905092915050565b600060208201905061031e60008301846102d8565b92915050565b6000819050602082019050919050565b600081519050919050565b6000602082019050919050565b600082825260208201905092915050565b6000819050919050565b6103708161035d565b811461037b57600080fd5b5056fea264697066735822122044b5decfb8df81c308d9a36706fa052c8c9ac08c752cf364519c423799f5069e64736f6c63430008040033",
  "immutableReferences": {},
  "source": "// SPDX-License-Identifier: MIT\n\npragma solidity ^0.8.4;\n\ncontract AdvancedStorage {\n    uint [] public ids;\n\n    function add(uint _id) public {\n        ids.push(_id);\n    }\n\n    function get(uint position) view public returns (uint) {\n        return ids[position];\n    }\n\n    function getAll() view public returns (uint[] memory) {\n        return ids;\n    }\n\n    function getLength()  view public returns (uint) {\n        return ids.length;\n    }\n}\n",
  "sourcePath": "/home/devcraft/Desktop/smart-contracts/4.AdvancedStorage/contracts/AdvancedStorage.sol",
  "compiler": {
    "name": "solc",
    "version": "0.8.4+commit.c7e474f2.Emscripten.clang"
  },
  "schemaVersion": "3.4.3",
  "updatedAt": "2021-09-28T16:41:34.417Z",
  "devdoc": {
    "kind": "dev",
    "methods": {},
    "version": 1
  },
  "userdoc": {
    "kind": "user",
    "methods": {},
    "version": 1
  }
}